:100000000C94D6210D94F6B90D9427BA0D9458BAD4
:100010000D9489BA0D94BABA0D94EBBA0D941CBB29
:100020000D944DBB0C9403220C9403220C940322D8
:100030000C9403220C9403220C9403220D9432029C
:100040000C9403220C9403220C9403220C9403229C
:100050000C9403220C9403220C9403220D947EBB77
:100060000C9403220C94F6290C94252A0C94032258
:100070000C9403220C9403220C9403220C9403226C
:100080000C9403220C9403220C9403220C9403225C
:100090000C94602A0C948F2A0C9403220D94741BE8
:1000A0000C9403220D945F020C9403220C940322FF
:1000B0000C9403220C9403220D948C020C940322C2
:1000C0000C9403220C9403220C9403220C94CA2A4D
:1000D0000C94F92A0C9403220C94342B0C94632B6B
:1000E0000C940322AF68C8682469F2680B694669FA
:1000F00068699B69AC69C369FE69CC697B6A8A6A75
:10010000466B466B9B6AB46ACD6A626A9668176AE8
:10011000496A3569E1685769E569306A466BE66A9C
:10012000F76A086B7969146B256B366B8A69938D56
:10013000AE8D968D998D9C8D9E8DA08DA28DA58D59
:10014000A78DAA8DAC8DB08DB28DB58DB78DB98DC3
:10015000BB8DBD8D1EA434A43BA425A42DA442A414
:1001600081A465A45EA457A46CA473A47AA449A432
:1001700050A499A488A4A6A4ADA4B3A4F6A4BAA438
:10018000BFA4036EDB363D9A9999993DABAAAA2A82
:100190003E000000803F084AD73B3BCE016E84BC46
:1001A000BFFDC12F3D6C74319ABD56833DDA3D00D1
:1001B000C77F11BED9E4BB4C3E916BAAAABE00001A
:1001C00000803F072C7AA5BA6CC590DA3B9365FC9A
:1001D0008BBC53F810FD3C5692834DBD879D3AB6BB
:1001E0003DCBC9BF5BBE73DA0FC93F05A84CCDB28A
:1001F000D44EB93836A9020C50B9918688083CA66D
:10020000AAAA2ABE000000803F08000000BE922477
:1002100049123EABAAAA2ABECDCCCC4C3E0000006F
:1002200080BEABAAAAAA3E00000000BF000000806A
:100230003F0000000000084178D3BB4387D1133D45
:10024000190E3CC3BD4282AD2B3E68EC8276BED90E
:100250008FE1A93E4C80EFFFBE01C4FF7F3F00004D
:100260000000000664EC1B3C04BC163E3BE5B93CB8
:10027000C93C37C29E5A3D660498083EEA69AAAA5C
:100280003E000000803F02005241575F53454E53ED
:10029000000000000000000000300000000000022C
:1002A000014558545F5354415400000000000000C1
:1002B0000000320000000000020252435F43484148
:1002C0004E000000000000000000003400000000AC
:1002D0000002035241575F4354524C00000000009B
:1002E000000000003600000000000204504F534997
:1002F00054494F4E0000000000000000003800008C
:100300000000000205455854524131000000000031
:100310000000000000003A000000000002064558FE
:100320005452413200000000000000000000003C78
:1003300000000000000207455854524133000000FD
:1003400000000000000000003E0000000000020865
:10035000504152414D5300000000000000000000D9
:100360000040000000000000FF000000000000004E
:10037000000000000000000000000000000000007D
:100380000253595349445F53575F4D52455600003D
:10039000000000D80E000000000153595349445F8B
:1003A00053575F545950450000000001DA0E000019
:1003B00020410253595349445F544849534D4156D3
:1003C0000000000070DB0E0000803F0253595349CB
:1003D000445F4D5947435300000000000071DD0E9B
:1003E00000007F430153455249414C335F42415520
:1003F00044000000000072DF0E000064420154451A
:100400004C454D5F44454C415900000000000073CD
:10041000E00E000000000252544C5F414C540000BA
:100420000000000000000000A0E10E0080BB4401BD
:10043000534F4E41525F454E41424C450000000033
:100440000094E30E0000000001534F4E41525F54F0
:10045000595045000000000000009AE40E00000022
:100460000001424154545F4D4F4E49544F520000D9
:100470000000008DE50E000000000146535F424180
:1004800054545F454E41424C45000000C1F40E00FB
:1004900000000004564F4C545F44495649444552AD
:1004A00000000000008EE60ED34D9E4004414D50EA
:1004B0005F5045525F564F4C5400000000008FEAD9
:1004C0000E0000284204494E5055545F564F4C547C
:1004D0005300000000000090EE0E7B149640024294
:1004E0004154545F43415041434954590000000076
:1004F00091F20E0000DC44014D41475F454E414200
:100500004C450000000000000092F50E0000803F06
:1005100001464C4F575F454E41424C45000000009C
:10052000000096F60E00000000044C4F575F564F37
:100530004C5400000000000000000097F70E9A994C
:1005400019410153555045525F53494D504C450098
:10055000000000009BFB0E000000000252544C5FA4
:10056000414C545F46494E414C00000000A3FC0E34
:10057000000048430154494C5400000000000000B2
:10058000000000000000A4FE0E0000A04001424157
:1005900054545F564F4C545F50494E00000000A821
:1005A000010F0000803F01424154545F43555252B5
:1005B0005F50494E00000000A9020F0000004001FA
:1005C000525353495F50494E0000000000000000A4
:1005D0000018030F000080BF015448525F4143439D
:1005E0005F454E41424C4500000019040F00008059
:1005F0003F015941575F4F56525F4245484156456A
:100600000000001A050F000000000157505F544F12
:1006100054414C000000000000000000D3060F0011
:100620000000000157505F494E444558000000004B
:100630000000000000D4070F000000000257505FC8
:100640005241444955530000000000000000D60804
:100650000F0000004002434952434C455F52414461
:1006600049555300000000D70A0F000020410257EF
:10067000505F53504545445F4D4158000000000015
:10068000D80C0F0000FA43045854524B5F474149BD
:100690004E5F53430000000000A10E0FCDCC4C3E36
:1006A000025854524B5F4D494E5F44495354000029
:1006B000000017120F000070410352544C5F4C4F62
:1006C00049545F54494D4500000000A2140F0040FA
:1006D0009C45024C414E445F535045454400000048
:1006E00000000000D9180F00004842024155544F45
:1006F0005F56454C5A5F4D494E00000000DA1A0F14
:100700000000FAC2024155544F5F56454C5A5F4DA6
:10071000415800000000DB1C0F0000FA4202504963
:100720004C4F545F56454C5A5F4D41580000001CD9
:100730001E0F00007A43025448525F4D494E00009C
:100740000000000000000000B4200F00000243027F
:100750005448525F4D415800000000000000000066
:1007600000B5220F00007A440146535F5448525F9F
:10077000454E41424C4500000000B6240F000000E9
:10078000000246535F5448525F56414C55450000A5
:10079000000000B8250F00C07344025452494D5F59
:1007A0005448524F54544C4500000000B9270F00E4
:1007B00000E143025448525F4D49440000000000EC
:1007C0000000000000C2290F0000FA4301464C540B
:1007D0004D4F444531000000000000000000C82BD0
:1007E0000F0000000001464C544D4F4445320000BC
:1007F00000000000000000C92C0F000000000146AE
:100800004C544D4F444533000000000000000000F0
:10081000CA2D0F0000000001464C544D4F44453492
:10082000000000000000000000CB2E0F00000000C0
:1008300001464C544D4F4445350000000000000077
:100840000000CC2F0F0000000001464C544D4F44D7
:100850004536000000000000000000CD300F000011
:1008600000000153494D504C4500000000000000BD
:1008700000000000CE310F00000000024C4F475F27
:100880004249544D41534B00000000000014320F08
:100890000000BF4301544F595F52415445000000CE
:1008A00000000000000016340F0000803F01455397
:1008B000430000000000000000000000000000BA3B
:1008C000350F000000000154554E450000000000A7
:1008D0000000000000000000BB360F000000000216
:1008E00054554E455F4C4F5700000000000000007B
:1008F00000BD390F000000000254554E455F4849C5
:1009000047480000000000000000BC370F00007ADC
:1009100044014652414D4500000000000000000027
:10092000000000953B0F0000803F014348375F4FB8
:10093000505400000000000000000000983C0F0030
:1009400000E040024155544F5F534C4557000000B2
:100950000000000000993D0F0000F04108485331AD
:100960005F00000000000000000000000000503F99
:100970000FD22D0000084853325F00000000000035
:1009800000000000000000515C0FD22D000008485C
:1009900053335F0000000000000000000000000072
:1009A00052790FD22D0000084853345F0000000038
:1009B00000000000000000000053960FD22D000040
:1009C00004524154455F5049545F464600000000C0
:1009D000000054B30F0000000004524154455F5220
:1009E0004C4C5F464600000000000055B70F000069
:1009F000000004524154455F5941575F464600008C
:100A00000000000056BB0F00000000014D4E545F77
:100A10004155544F52545243545F4800002DBF0F6C
:100A20000000C842014D4E545F4155544F5F4D4F39
:100A30004445000000002EC00F0000004008524353
:100A4000315F00000000000000000000000000AA6C
:100A5000C10FD22D0000085243325F000000000099
:100A60000000000000000000ABDE0FD22D000008E7
:100A70005243335F0000000000000000000000004F
:100A800000ACFB0FD22D0000085243345F00000081
:100A900000000000000000000000AD1810D22D0082
:100AA00000085243355F0000000000000000000015
:100AB000000000AE3510682E0000085243365F007B
:100AC000000000000000000000000000AF531068AC
:100AD0002E0000085243375F0000000000000000B5
:100AE0000000000000B07110682E0000085243386A
:100AF0005F00000000000000000000000000B18F57
:100B000010682E000008524331305F0000000000E2
:100B100000000000000000B2AD10682E0000085276
:100B20004331315F000000000000000000000000C1
:100B3000B3CB10682E00000252435F53504545442A
:100B4000000000000000000000C0E9100000FA42B0
:100B5000044143524F5F50000000000000000000BD
:100B60000000DDEB100000904001415849535F4503
:100B70004E41424C450000000000009DFF0E000069
:100B8000803F024143524F5F42414C5F524F4C4CB9
:100B900000000000EFEF1000004843024143524FB5
:100BA0005F42414C5F5049544348000000F0F1104F
:100BB00000004843014143524F5F545241494E4562
:100BC0005200000000001BF3100000803F014C4564
:100BD000445F4D4F44450000000000000000009EAF
:100BE000000F0000104108524154455F524C4C5FC9
:100BF0000000000000000000DFF410552D00000888
:100C0000524154455F5049545F000000000000000D
:100C100000E00E11552D000008524154455F594126
:100C2000575F0000000000000000E12811552D0072
:100C300000084C4F495445525F4C41545F0000003E
:100C4000000000E74211552D0000084C4F49544563
:100C5000525F4C4F4E5F000000000000E85C1155F1
:100C60002D0000084E41565F4C41545F00000000CB
:100C70000000000000E97611552D0000084E415695
:100C80005F4C4F4E5F000000000000000000EA9043
:100C900011552D0000085448525F524154455F00E1
:100CA00000000000000000ECAA11552D00000854BF
:100CB00048525F414343454C5F0000000000000084
:100CC000F1C411552D0000084F465F524C4C5F0097
:100CD000000000000000000000EDDE11552D0000B6
:100CE000084F465F5049545F0000000000000000BC
:100CF0000000EEF811552D0000085354425F524C8D
:100D00004C5F000000000000000000E22E12F12CF9
:100D10000000085354425F5049545F000000000037
:100D200000000000E33C12F12C0000085354425F25
:100D30005941575F000000000000000000E44A1223
:100D4000F12C0000085448525F414C545F000000F1
:100D5000000000000000EB5812F12C000008484C85
:100D6000445F4C41545F000000000000000000E5BB
:100D70001212F12C000008484C445F4C4F4E5F00AB
:100D80000000000000000000E62012F12C00000826
:100D900043414D5F00000000000000000000000023
:100DA00000A5BC0D7E31000008434F4D5041535308
:100DB0005F00000000000000000093AF07062A005B
:100DC0000008494E535F00000000000000000000D2
:100DD000000000032E099C2A000008494E41565F7E
:100DE00000000000000000000000000064CA0CBD0C
:100DF000330000085352305F000000000000000084
:100E000000000000006EDE0A860200000853523324
:100E10005F000000000000000000000000006F2ED6
:100E20000B8602000008414852535F00000000009A
:100E3000000000000000009F7809292C0000084DE8
:100E40004E545F00000000000000000000000000A1
:100E5000A6CD0DFB310000084C494D5F000000009D
:100E6000000000000000000000413A0EF13C0000CC
:100E7000084C494D5F000000000000000000000029
:100E8000000042610EB33E0000084C494D5F000077
:100E90000000000000000000000000436C0E1D3E3A
:100EA0000000084C494D5F000000000000000000F9
:100EB0000000000044B90EA03D000008485F00009B
:100EC000000000000000000000000000005AB90B04
:100ED000712F000000000000000000000000000072
:100EE000000000000000000000000000004C6F67E0
:100EF0000064756D700000000000000000000048F4
:100F00008E6572617365000000000000000000F74C
:100F1000B0656E61626C6500000000000000003D7D
:100F20007F64697361626C65000000000000003D31
:100F30007F736574757000657261736500000000F1
:100F40000000000000A536726573657400000000A3
:100F50000000000000F37E726164696F0000000011
:100F60000000000000C97D6672616D650000000030
:100F7000000000000046756D6F746F727300000012
:100F80000000000000917D6C6576656C000000003B
:100F90000000000000297D616363656C00000000B3
:100FA0000000000000437C6D6F646573000000006A
:100FB00000000000006F6F62617474657279000058
:100FC00000000000000975736F6E61720000000080
:100FD0000000000000AE74636F6D706173730000F9
:100FE0000000000000D47B74756E650000000000F6
:100FF0000000000000447272616E6765000000002E
:1010000000000000000F726465636C696E617469B2
:101010006F6E000000987B6F7074666C6F770000D5
:1010200000000000005E7B68656C69000000000045
:101030000000000000E0756779726F00000000009A
:1010400000000000001E7473686F7700000000004D
:1010500000000000000C7441726475436F70746589
:10106000722056322E392E3162006C6F6773000089
:101070000000000000000000186E736574757000B9
:101080000000000000000000C36D74657374000070
:101090000000000000000000BD6D7265626F6F749B
:1010A0000000000000000000105F68656C70000028
:1010B0000000000000000000A1347465737400702B
:1010C000776D0000000000000000000000E567727E
:1010D0006164696F00000000000000000073676732
:1010E00070730000000000000000000000ED6C695B
:1010F0006E730000000000000000000000966B62AC
:10110000617474657279000000000000000FB07413
:10111000756E6500000000000000000000476B7263
:10112000656C6179000000000000000000D063776A
:1011300070000000000000000000000000D35D61AE
:101140006C746974756465000000000000CDAD73B7
:101150006F6E6172000000000000000000476363D2
:101160006F6D70617373000000000000006B626FB0
:101170007074666C6F7700000000000000675F65A8
:101180006564756D700000000000000000615D6C1A
:101190006F6767696E6700000000000000B55C6E55
:1011A00061760000000000000000000000D0AB628B
:1011B0006561723A20256C640A0052656163686556
:1011C0006420436F6D6D616E642023256900466F56
:1011D000726D61742076657273696F6E3A20256C4A
:1011E000782020457870656374656420666F726D41
:1011F00061742076657273696F6E3A20256C780A87
:10120000004E756D50616765733A2025752020503A
:1012100061676553697A653A2025750A004D616EEC
:101220007566616374757265723A20307825303264
:10123000782020204465766963653A20307825302F
:1012400034780A004552523A204E6F20646174612E
:10125000666C61736820696E7365727465640054AE
:10126000657374696E672064617461666C6173682C
:10127000206C6F6767696E67002025303278002523
:101280003034783A004F7074466C6F773A200078AB
:101290002F64783A2025642F25640920792F6479FA
:1012A0002025642F25640920737175616C3A2564CB
:1012B0000A006D616E2069643A202564090048695E
:1012C0007420456E74657220746F20657869742E81
:1012D0000A0A0061626C65640A0064697300656EE5
:1012E00000436F6D706173733A20006E6F742068F5
:1012F00065616C7468790048656164696E673A205D
:10130000256C642C2058595A3A2025642C202564D9
:101310002C2025640A00536F6E61723A20256420E8
:10132000636D0A00536F6E61722064697361626C51
:1013300065640A00616C743A20256C64636D2C202E
:10134000707265733A20256C646D6261722C207432
:10135000656D703A2025642F313030646567432C09
:101360002072617720707265733A20256C642C209E
:101370007261772074656D703A20256C640A006292
:1013800061726F6D657465722063616C6962726110
:1013900074696F6E20636F6D706C65746500486969
:1013A00074207261643A2025646D0A0025642077F8
:1013B000700A006F662025646D0A000A00486F6C91
:1013C0006420616C742000636D64233A20256420DE
:1013D0007C2025642C2025642C2025642C20256C61
:1013E000642C20256C642C20256C640A0052656CEA
:1013F0006179206F66660A0052656C6179206F6EB4
:101400000A0074756E653A2025312E33660A00563F
:101410003A2025342E34662C20413A2025342E34AF
:10142000662C2041683A2025342E34660A00563A4C
:101430002025342E34660A000A4361726566756C95
:1014400021204D6F746F72732077696C6C207370FC
:10145000696E2120507265737320456E7465722029
:10146000746F2073746172742E0A004C6F7720427F
:101470006174746572792100612025372E346620ED
:1014800025372E34662025372E34662067202537F1
:101490002E34662025372E34662025372E346620DC
:1014A000742025373466207C2025372E34660A00C8
:1014B000494E530A002E002C20416C743A20256CB2
:1014C000646D2C2023736174733A2025640A002C08
:1014D000204C6F6E20004C61743A2000494E202051
:1014E000313A20256409323A20256409333A20250F
:1014F0006409343A20256409353A20256409363ACE
:1015000020256409373A2025640A00494E3A2031E3
:101510003A20256409323A20256409333A202564AB
:1015200009343A20256409353A20256409363A20E1
:10153000256409373A20256409383A2025640A00D1
:10154000436F6D6D616E64733A0A20206C6F677330
:101550000A202073657475700A2020746573740AFC
:1015600020207265626F6F740A0A005245424F4F25
:1015700054494E470A000A20547970652027726149
:1015800064696F27206E6F772E0A0A000A2157615F
:10159000726E696E672C20726164696F206E6F7461
:1015A00020636F6E666967757265642100536574A8
:1015B0007570204D6F64650A0A0A0046572056650B
:1015C000723A2025640A002D00526164696F0A0096
:1015D0004348373A202564207C2025640A0043488C
:1015E000363A202564207C2025640A004348353A99
:1015F000202564207C2025640A004348343A2025B5
:1016000064207C2025640A004348333A2025642066
:101610007C2025640A004348323A202564207C203F
:1016200025640A004348313A202564207C20256443
:101630000A0048656C69206672616D650A00467231
:10164000616D650A00766F6C747320616E6420634F
:10165000757200766F6C7473000A42617474204D69
:101660006F6E3A0A00547970653A2025642028305C
:101670003D584C2C20313D4C562C20323D584C4C82
:101680002C20333D48524C562900536F6E61720A2C
:1016900000466C69676874206D6F6465730A004F5B
:1016A00046460A004F4E0A002C090953696D706CBA
:1016B000653A2000506F732025643A09002D2D2DC6
:1016C00000544F595F4100544F595F4D004F465FE2
:1016D0004C4F49544552004C414E4400504F5349E1
:1016E00054494F4E00434952434C450052544C001C
:1016F0004C4F4954455200475549444544004155D3
:10170000544F00414C545F484F4C44004143524FAA
:101710000053544142494C495A4500494E530A002E
:10172000475F6F66663A2025342E32662C202534BA
:101730002E32662C2025342E32660A00415F6F66F9
:10174000663A2025342E32662C2025342E32662C23
:101750002025342E326609415F7363616C653A203F
:1017600025342E32662C2025342E32662C2025344A
:101770002E32660A004D6167206F66663A20253476
:101780002E34662C2025342E34662C2025342E341D
:1017900066004D6167204465633A2025342E346627
:1017A0000A00436F6D706173730A00736572766F20
:1017B00020726174653A09256420687A0A00636FB3
:1017C0006C6C206D696E3A09256409206D69643A74
:1017D000256409206D61783A25640A007069746394
:1017E00068206D61783A200925640A00726F6C6C7C
:1017F000206D61783A200925640A007461696C3AA9
:101800000909256420092564200925640A00333A62
:101810000925642009256420092564200925640A16
:1018200000323A092564200925642009256420092D
:1018300025640A00313A0925642009256420092518
:1018400064200925640A00536572766F2009706F61
:101850007320096D696E20096D61782009726576C3
:101860000A0048656C690A006761696E3A20256460
:10187000004779726F3A0A000A4F703A5B6F6E2C1C
:10188000206F66665D206761696E0A006F6666009C
:101890006F6E004469676974616C20536572766F7E
:1018A000202564687A0A00416E616C6F6720536579
:1018B00072766F202564687A0A00536572766F200D
:1018C000256409097472696D3A25640A00536572CA
:1018D000766F2025640909706F733A25640A004900
:1018E0006E76616C6964206D696E2F6D617820631E
:1018F0006170747572656420726F6C6C3A25642C2B
:10190000202070697463683A25642C2020636F6C12
:101910006C656374697665206D696E3A2025642074
:101920006D61783A2025642C20207461696C206DEB
:10193000696E3A2564206D61783A25640A004D6F1E
:10194000766520636F6C6C2C20726F6C6C2C207031
:101950006974636820616E64207461696C20746FBF
:101960002065787472656D65732C20707265737371
:1019700020276D27207768656E20646F6E650A00EA
:10198000436F6C6C656374697665207768656E205B
:10199000626C616465207069746368206174207A88
:1019A00065726F3A2025640A00097809096578692B
:1019B00074202620736176650A0009743C616E67A5
:1019C0006C653E09736574207472696D20282D352D
:1019D0003030207E20353030290A00097520617CA6
:1019E00064090975706461746520726174652028EA
:1019F000613D616E616C6F6720736572766F2C203C
:101A0000643D6469676974616C290A000972090997
:101A10007265766572736520736572766F0A000968
:101A2000703C616E676C653E0973657420706F73FE
:101A30002028692E652E207030203D2066726F6E42
:101A4000742C20703930203D207269676874290A2F
:101A500000096D090973657420726F6C6C2C20701D
:101A6000697463682C20636F6C6C206D696E2F6DD8
:101A700061780A000963090973657420636F6C6CEF
:101A8000207768656E20626C61646520706974639C
:101A900068207A65726F0A000961206F72207A09E6
:101AA000096D6F7665206D69642075702F646F779E
:101AB0006E0A0009317E34090973656C6563742010
:101AC000736572766F0A0009640909646973706C42
:101AD00061792073657474696E67730A00496E7367
:101AE0007472756374696F6E733A000A4F703A5B73
:101AF0006F6E2C206F66665D0A006F6666006F6E03
:101B0000000A4661696C656420746F20496E6974CF
:101B1000204F7074466C6F7720000A4348203620AF
:101B200052616E67657320617265206469766964CD
:101B3000656420627920313030303A205B6C6F77F9
:101B40002C20686967685D0A002025642C204C6F92
:101B5000773A25312E34662C20486967683A25315A
:101B60002E34660A000A54554E453A0A000A4F7050
:101B70003A5B6F6E2C6F66665D0A006F6666006F7B
:101B80006E00434F4D5041535320494E4954204518
:101B900052524F52000A4F703A5B6F6E2C206F66A4
:101BA000662C20302D335D0A006F6666006F6E0074
:101BB0000A4F703A206F66662C20332D34006F6612
:101BC00066000A4D6F6465207377697463682074DA
:101BD0006F20656469742C2061696C65726F6E3A60
:101BE0002073656C656374206D6F6465732C20725F
:101BF00075646465723A2053696D706C65206F6E10
:101C00002F6F66660A000A53617665640A00496EA2
:101C1000697469616C6973696E67206779726F7343
:101C2000004E6F7720636F6E6E6563742074686515
:101C3000206D61696E206C69706F20616E64206632
:101C40006F6C6C6F772074686520696E7374727541
:101C50006374696F6E206F6E207468652077696B9E
:101C60006920666F7220796F7572206672616D658A
:101C70002073657475702E0A466F722073656375E4
:101C8000726974792072656D656D62657220746F1A
:101C900020646973636F6E6E656374207468652079
:101CA0006D61696E206C69706F2061667465722069
:101CB00074686520746573742C207468656E206880
:101CC000697420616E79206B657920746F20657866
:101CD00069742E0A416E79206B657920746F2065D6
:101CE0007869742E0A000A4F703A5B782C2B2C7698
:101CF0005D0A0076002B00700078000A4D6F766553
:101D000020616C6C20636F6E74726F6C7320746FE3
:101D10002065787472656D65732E20456E746572EA
:101D200020746F20736176653A20000A0A5261645C
:101D3000696F2053657475703A000A5265626F6F5F
:101D4000742041504D000A275927203D20666163C9
:101D5000746F72792072657365742C20616E7920BE
:101D60006F74686572206B657920746F2061626F93
:101D700072743A0A00646F6E650A000A45726173F4
:101D8000696E6720454550524F4D0A00656E61628D
:101D90006C650043414D45524100494E4156004952
:101DA0005445524D00504944004F5054464C4F57F3
:101DB000004D4F544F52530043555200434D440081
:101DC000524157004D4F4445004E54554E00435428
:101DD000554E00504D0047505300415454495455FE
:101DE00044455F4D45440041545449545544455F72
:101DF0004641535400616C6C006D697373696E6782
:101E0000206C6F6720747970650A004C6F672065DD
:101E10007261736520636F6D706C6574650A00454F
:101E2000726173696E67206C6F67730A0062616428
:101E3000206C6F67206E756D6265720A0064756D47
:101E400070696E6720616C6C0A0025640A00256465
:101E50002C0900444620706167652C206C6F672058
:101E600066696C6520232C206C6F67207061676544
:101E70003A2025642C090041504D20320A000A41C5
:101E8000726475436F707465722056322E392E312C
:101E9000620A467265652052414D3A2025750A0056
:101EA0004572726F722052656164696E6720454E9B
:101EB000445F425954453A2025640A002E0041549B
:101EC000542C2025642C2025642C2025642C2025CE
:101ED000642C2025642C2025752C2025750A002CC7
:101EE0002025640A004D4F443A0025640A00256409
:101EF0002C20004354554E2C200025640A002564F4
:101F00002C20004E54554E2C2000504D2C20256482
:101F10002C2025642C2025642C2025752C2025754B
:101F20002C20256C750A0020002C20005241572CD3
:101F300000434D442C2025642C2025642C2025644E
:101F40002C2025642C2025642C20256C642C202535
:101F50006C642C20256C640A00435552522C2025B9
:101F6000642C20256C642C2025342E34662C2025EE
:101F7000342E34662C2025640A00535441525420D8
:101F800055500A004D4F542C2025642C2025642CDC
:101F90002025642C2025642C2025640A004F462C23
:101FA0002025642C2025642C2025642C2025642CDD
:101FB0002025642C2025342E37662C2025342E37FE
:101FC000662C20256C642C20256C640A002C2025AE
:101FD000342E34662C2025342E34662C2025642C97
:101FE00020256C640A002C20004750532C20256CBF
:101FF000642C2025642C2000444154413A2025754E
:102000002C20256C640A00444154413A2025752C4B
:102010002025750A00444154413A2025752C20257D
:10202000640A00444154413A2025752C2025312E64
:1020300036660A0045563A2025750A005049442D57
:1020400025642C20256C642C20256C642C20256CA8
:10205000642C20256C642C20256C642C2025342EC7
:1020600034660A0025642C2000495445524D2C202A
:1020700000444D502C2025642C2025642C20256400
:102080002C2025642C2025752C2025750A00494E0E
:1020900041562C2025642C2025642C2025642C20DE
:1020A00025642C2025362E34662C2025362E3466C9
:1020B0002C2025362E34662C2025362E34662C20F6
:1020C000256C642C20256C642C2025362E34662C3F
:1020D0002025362E34662C2025362E34662C2025DD
:1020E000362E34660A002C2025342E34662C20250A
:1020F000642C2025642C2025750A002C20004341E7
:102100004D4552412C20256C642C20002C20256448
:102110000A002564004653004F4600434F4D0052CD
:102120004144494F004D41494E004552522C200038
:102130004C6F672025642C202020207374617274FA
:102140002025642C202020656E642025640A000A66
:102150002575206C6F67730A000A4E6F206C6F67DD
:10216000730A0A002043414D4552410020494E4127
:10217000560020495445524D002050494400204FFC
:102180005054464C4F5700204D4F544F525300204F
:1021900043555252454E540020434D440020524175
:1021A0005700204E54554E00204354554E002050A9
:1021B0004D00204750530020415454495455444544
:1021C0005F4D4544002041545449545544455F46B1
:1021D000415354006E6F6E65006C6F677320656EBF
:1021E00061626C65643A20004F7074466C6F770AC8
:1021F00000256C642E2530376C64002D006261640C
:102200002066656E636520706F696E74006261643C
:102210002066656E636520706F696E7400666C6918
:1022200067687420706C616E20726563656976659D
:102230006400556E6B6E6F776E20706172616D65B4
:1022400074657220252E31367300556E6B6E6F7774
:102250006E20706172616D6574657220696E64656F
:102260007820256400636F6D6D616E642072656314
:1022700065697665643A200047524F554E442053B5
:1022800054415254004572723A2074617267657409
:102290002073656E7420746F20696E616374697653
:1022A00065206163632074687220636F6E74726F5F
:1022B0006C6C6572210A00556E737570706F727464
:1022C0006564207468726F74746C65206D6F6465EA
:1022D0003A20256421210041524D494E4720505259
:1022E0004556454E544544202D204C696D69742057
:1022F0004272656163686564004C696D697473203E
:102300002D2052756E6E696E67207072652D617238
:102310006D20636865636B73004C696D6974733A13
:1023200020756E6B6E6F776E207374617465004CF0
:10233000696D697473202D2052657475726E696EB3
:102340006720636F6E74726F6C73004C696D697493
:1023500073205265636F7665727920457363616C93
:102360006174696F6E3A2052544C004C696D697407
:1023700073205265636F7665727920426F756E6364
:10238000653A2052657475726E696E6720636F6E70
:1023900074726F6C20746F2070696C6F74004C697C
:1023A0006D69747320416374696F6E202D20626FB4
:1023B000756E6365206D6F64652C20504F534954D2
:1023C000494F4E004C696D69747320416374696FA5
:1023D0006E202D2052544C0021416C746974756438
:1023E00065002147656F66656E6365002147505340
:1023F0004C6F636B004C696D697473202D20416CC8
:102400006C20436C656172004C696D697473202D9A
:10241000205374617465206368616E67653A205566
:102420004E4B4E4F574E004C696D697473202D20F2
:102430005374617465206368616E67653A20524524
:10244000434F5645524544004C696D697473202DC5
:10245000205374617465206368616E67653A205229
:1024600045434F564552494E47004C696D69747358
:10247000202D205374617465206368616E67653A2E
:1024800020545249474745524544004C696D697490
:1024900073202D205374617465206368616E6765D5
:1024A0003A20454E41424C4544004C696D69747375
:1024B000202D205374617465206368616E67653AEE
:1024C0002044495341424C4544004C696D69747342
:1024D000202D205374617465206368616E67653ACE
:1024E00020494E4954000A526561647920746F2076
:1024F000464C5920004C696D697473204D6F6475AA
:102500006C6573204C6F61646564000A507265737A
:102510007320454E54455220332074696D657320F5
:10252000746F20737461727420696E746572616374
:10253000746976652073657475700A00455241535D
:10254000494E47204C4F4753004E6F2064617461E1
:10255000666C61736820696E736572746564000AE5
:102560000A496E69742041726475436F70746572B4
:102570002056322E392E31620A0A46726565205283
:10258000414D3A2025750A006C6F61645F616C6C87
:1025900020746F6F6B20256C7575730A00646F6E05
:1025A000652E004669726D77617265206368616EA1
:1025B00067653A2065726173696E672045455052C0
:1025C0004F4D2E2E2E0A004553432043616C696205
:1025D000726174696F6E206163746976653A207008
:1025E000617373696E67207468726F74746C6520B0
:1025F0007468726F75676820746F20455343732E3B
:102600000A00456E746572696E6720455343204326
:10261000616C6962726174696F6E3A20706C656199
:10262000736520726573746172742041504D2E0A77
:102630000000407A10F35A00A0724E18090010A54D
:10264000D4E80000E87648170000E40B54020000CC
:10265000CA9A3B000000E1F5050000809698000052
:102660000040420F000000A086010000001027007B
:10267000000000E803000000006400000000000A01
:1026800000000000000100000000002C76D888DC6B
:10269000674F0823DFC1DFAE59E1B1B796E5E3E448
:1026A00053C63AE651997696E8E6C28426EB898CC1
:1026B0009B62ED407C6FFCEFBC9C9F40F2BAA56F23
:1026C000A5F490055A2AF75C936B6CF9676DC11BF2
:1026D000FCE0E40D47FEF520E6B500D0ED902E03BA
:1026E00000943577050080841E080000204E0A0003
:1026F0000000C80C333333330F986E12831141EF4F
:102700008D2114893BE65516CFFEE6DB18D1844BAC
:10271000381BF77C1D901DA4BBE424203284725E1C
:10272000228100C9F124ECA1E53D276E616E0069AC
:102730006E660025733A2025660A0025733A202527
:102740006C640A0025733A2025640A0025733A2038
:1027500025640A00202025530A00436F6D6D616EC9
:1027600064733A00496E76616C696420636F6D6DC5
:10277000616E642C2074797065202768656C702701
:1027800000657869740068656C700025535D2000F1
:10279000245047434D442C31362C302C302C302CD7
:1027A000302C302A36410D0A002450535246313025
:1027B000302C302C33383430302C382C312C302A1B
:1027C000334300204E4D45412000205349524620BE
:1027D00000204D544B2000204D544B313920002017
:1027E00075626C6F7820000096000000E1000080A8
:1027F000250000C01200004F4B0077726F6E6720FB
:10280000636B5F620A0077726F6E6720636B5F6154
:102810000A0024505352463130332C302C302C31A6
:102820002C312A32350D0A24505352463130332C84
:10283000312C302C302C312A32350D0A2450535291
:10284000463130332C322C302C302C312A32360D9C
:102850000A24505352463130332C332C302C302C38
:10286000312A32370D0A24505352463130332C343A
:102870002C302C312C312A32300D0A245053524640
:102880003130332C352C302C312C312A32300D0A9A
:1028900024505352463130332C362C302C302C31CE
:1028A0002A32320D0A24505352463130332C382C00
:1028B000302C302C312A32430D0A245053524631E9
:1028C00035312C312A33460D0A24505352463130CB
:1028D000362C32312A30460D0A0024504D544B33E9
:1028E00031342C302C302C312C312C302C302C30FD
:1028F0002C302C302C302C302C302C302C302C30F8
:102900002C302C302A32380D0A24504D544B33339E
:10291000302C302A32450D0A24504D544B3331337C
:102920002C312A32450D0A24504D544B3330312C72
:10293000322A32450D0A0024505542582C34302C8E
:102940006767612C302C312C302C302C302C302A05
:1029500037420D0A24505542582C34302C76746777
:102960002C302C312C302C302C302C302A37460D8A
:102970000A24505542582C34302C726D632C302C64
:10298000302C302C302C302C302A36370D0A0047B2
:1029900050524D4300475047474100475056544717
:1029A00000A0A20008A60200000000000000A8B0DD
:1029B000B3A0A20008A60029010000000000D0B0CA
:1029C000B324505542582C34312C312C3030303314
:1029D0002C303030312C33383430302C302A3236F1
:1029E0000AB56206010300010601124F004D41586D
:1029F0005F50494E5F534F55524345532052454116
:102A0000434845440A0005014F46530000000000BA
:102A100000000000000000000011000000000004A1
:102A200002444543000000000000000000000000D8
:102A300000001D000000000001034C4541524E0003
:102A400000000000000000000000002100000080E5
:102A50003F01045553450000000000000000000045
:102A60000000000022000000803F01054155544F46
:102A70004445430000000000000000000023000067
:102A800000803F00FF000000000000000000000088
:102A90000000000000000000000000000200505292
:102AA0004F445543545F4944000000000000001AA1
:102AB000000000000005014143435343414C000026
:102AC00000000000000000001C00000000000502E3
:102AD0004143434F46465300000000000000000001
:102AE0000028000000000005034759524F46465396
:102AF00000000000000000000000340000000000A2
:102B000001044D5055364B5F46494C544552000028
:102B100000000040000000000000FF000000000076
:102B200000000000000000000000000000000000A5
:102B3000000043616C6962726174696F6E20666146
:102B4000696C65642028252E316620252E3166208B
:102B5000252E316620252E316620252E3166202532
:102B60002E3166290A0043616C6962726174696F73
:102B70006E207375636365737366756C0A00506CC1
:102B80006163652041504D20255320616E642070A3
:102B90007265737320616E79206B65792E0A006F00
:102BA0006E2069742773206261636B006E6F7365BA
:102BB000207570006E6F736520646F776E006F6EA6
:102BC000206974277320726967687420736964656B
:102BD000006F6E2069742773206C656674207369BA
:102BE0006465006C6576656C0020002A00496E699A
:102BF0007420416363656C000A6779726F206469B1
:102C000064206E6F7420636F6E76657267653A201C
:102C1000646966663D2566206470730A002A00496F
:102C20006E6974204779726F0004024750535F4702
:102C300041494E0000000000000000002400000098
:102C4000803F01034750535F55534500000000008B
:102C5000000000000028000000803F040459415794
:102C60005F500000000000000000000000001C0099
:102C7000CDCCCC3E040552505F5000000000000057
:102C8000000000000000002000CDCCCC3E01065723
:102C9000494E445F4D415800000000000000000014
:102CA0002A000000000001074241524F5F55534582
:102CB00000000000000000000029000000000005E6
:102CC000085452494D0000000000000000000000C0
:102CD00000003A000000000000FF000000000000BB
:102CE00000000000000000000000000000000000E4
:102CF0000004005000000000000000000000000080
:102D00000000000000000000000004014900000075
:102D100000000000000000000000000000040000AF
:102D20000000000202494D41580000000000000070
:102D300000000000000008000000000000FF00008C
:102D40000000000000000000000000000000000083
:102D5000000000000004005000000000000000001F
:102D6000000000000000000000000000000004015E
:102D7000490000000000000000000000000000000A
:102D800000040000000000040244000000000000F5
:102D9000000000000000000000000800000000002B
:102DA0000203494D415800000000000000000000EF
:102DB0000000000C000000000000FF000000000008
:102DC0000000000000000000000000000000000003
:102DD000000002004D494E0000000000000000000D
:102DE00000000000000A000080894402015452499A
:102DF0004D000000000000000000000000000C007A
:102E00000080BB4402024D41580000000000000059
:102E1000000000000000000E000080ED440103529D
:102E20004556000000000000000000000000000007
:102E300010000000803F0204445A0000000000001F
:102E40000000000000000000001100000000000071
:102E5000FF00000000000000000000000000000073
:102E6000000000000000000008000000000000005A
:102E700000000000000000000000000000D22D0053
:102E800000010146554E4354494F4E0000000000DA
:102E9000000000001D000000000000FF0000000016
:102EA0000000000000000000000000000000000022
:102EB000000000040054425F524154494F0000009A
:102EC0000000000000001A000000803F0101544390
:102ED00052565F454E41424C450000000000005DE7
:102EE000000000803F0102544352565F4D49445058
:102EF00043540000000000005E0000005042010347
:102F0000544352565F4D4158504354000000000056
:102F1000005F000000BA4200FF0000000000000057
:102F200000000000000000000000000000000000A1
:102F300041505F4D6F746F72733A206661696C65C2
:102F40006420746F20637265617465207468726FA9
:102F500074746C652063757276650009736C6F70AC
:102F6000653A0009793A00783A0043757276653A15
:102F70000002015356315F504F5300000000000023
:102F8000000000006C00000070C202025356325F65
:102F9000504F53000000000000000000006E0000D1
:102FA00000704202035356335F504F53000000003D
:102FB0000000000000007000000034430204524F83
:102FC0004C5F4D4158000000000000000000007CF4
:102FD0000000A08C4502055049545F4D4158000047
:102FE00000000000000000007E0000A08C450206EA
:102FF000434F4C5F4D494E000000000000000000B0
:1030000000720000409C440207434F4C5F4D415802
:1030100000000000000000000000740000C0DA445E
:103020000208434F4C5F4D4944000000000000007F
:1030300000000076000080BB4402094759525F45FA
:103040004E41424C450000000000000078000000A6
:103050000000010A53574153485F5459504500003E
:1030600000000000006B0000000000020B475952F6
:103070005F4741494E0000000000000000007A0058
:1030800000C0A844010C53565F4D414E00000000A3
:1030900000000000000000840000000000020D504D
:1030A00048414E4700000000000000000000000002
:1030B000800000000000020E434F4C5941570000B1
:1030C000000000000000000000820000000000027C
:1030D0000F474F565F534554504F494E5400000020
:1030E000000085000080BB4401105253435F4D4FE8
:1030F0004445000000000000000000870000008040
:103100003F02115253435F524154450000000000FA
:1031100000000000880000007A440112464C594229
:1031200041525F4D4F44450000000000008A0000FE
:103130000000000113535441425F434F4C5F4D491F
:103140004E00000000008D000000000001145354E8
:1031500041425F434F4C5F4D415800000000008EDC
:10316000000000C84200FF00000000000000000056
:10317000000000000000000000000000000001004E
:1031800054524947475F5459504500000000000021
:103190000000000000000001014455524154494F15
:1031A0004E0000000000000000000100000020416F
:1031B0000202534552564F5F4F4E00000000000080
:1031C00000000002000080A2440203534552564F03
:1031D0005F4F464600000000000000000400008031
:1031E000894400FF00000000000000000000000013
:1031F000000000000000000000000001004D4F44EE
:1032000045000000000000000000000000006C000D
:103210000000000005015245545241435400000093
:103220000000000000000048000000000005024E01
:1032300045555452414C00000000000000000000C1
:103240005400000000000503434F4E54524F4C0001
:10325000000000000000000000600000000000010D
:1032600004535441425F524F4C4C00000000000098
:1032700000003500000000000105535441425F5436
:10328000494C54000000000000000036000000001F
:10329000000106535441425F50414E0000000000BF
:1032A00000000000370000000000010752435F49A2
:1032B0004E5F524F4C4C00000000000000380000F0
:1032C0000000000208414E474D494E5F524F4C00EE
:1032D0000000000000003B0000A08CC50209414E28
:1032E000474D41585F524F4C000000000000003D28
:1032F0000000A08C45010A52435F494E5F54494C7F
:103300005400000000000000390000000000020B23
:10331000414E474D494E5F54494C000000000000AB
:10332000003F0000A08CC5020C414E474D41585F44
:1033300054494C00000000000000410000A08C45F2
:10334000010D52435F494E5F50414E0000000000A6
:103350000000003A0000000000020E414E474D49B7
:103360004E5F50414E00000000000000430000A0EE
:103370008CC5020F414E474D41585F50414E0000F1
:103380000000000000450000A08C4501104A535485
:1033900049434B5F535044000000000000004700C9
:1033A0000000000000FF000000000000000000001E
:1033B00000000000000000000000000000050041C7
:1033C000434F5252000000000000000000000000C7
:1033D000020000000000040154435F58590000003F
:1033E0000000000000000000002300000040400436
:1033F0000254435F5A00000000000000000000007B
:10340000000078000000A04000FF00000000000065
:1034100000000000000000000000000000000000AC
:1034200000327C8900EDD968770000005900000067
:103430000000000000D69FDCA81817AA904373274D
:10344000F6B968EDF4DED409FEE61C1C84DDE80B59
:10345000992927D6DF8D210F036418EFEE1EF0B7F0
:10346000828200941500347C0000001400988F00C4
:1034700000000000000000000000E7B73F36000039
:103480000000000000AF669ED03800000000000081
:10349000000000000000000000000000000000002C
:1034A000000000000000000000000000000000001C
:1034B0000000000000000086DBD0BC541613158607
:1034C000004E44BD7F6F1515900100000000000004
:1034D00000000000000000000000000000000000EC
:1034E00000000000000000000000040000000000D8
:1034F00000000000000000000000000000000000CC
:1035000000000000000000000000000000000000BB
:1035100000000000000000000000CC31AA2C532E57
:103520000096918C87827D78736E69645F5A5550DE
:103530004B46413C37322D28231E19140F0A050033
:1035400004090E13181D22272C31363B40454A4FE3
:1035500054595E63686D72777C81868B90959A9FD3
:10356000A4A9AEB3AFAAA5A09B968F89837E7873DA
:103570006E69645F5A55504B47423E3935302C27AF
:10358000231F1B16120E09050103070B1014191D2A
:1035900022262B2F34393D42474C51565B60656BD8
:1035A00070757B80868C92979DA3A9AFB2ACA6A0C4
:1035B0009A948F827C76706B65605C57524E4A4657
:1035C000413D3936322E2A26221F1B1713100C08B4
:1035D000040102060A0E12161A1E22262B2F333859
:1035E0003D41464B4F54595E64696F747A80878DB4
:1035F000949BA2AAB1AEA69F979089826F68635EE2
:103600005955514D4946423F3C3835322E2B2824DE
:10361000211E1A1714100D0A0603000306090D10C7
:1036200014181C2024282C3034393D41464A4F546C
:10363000585D62676D737980878F98A2ACB0A59A48
:1036400090867D766F55514D4A4744413F3C3A380C
:103650003533312E2B292623201D1A1713100D0A5E
:10366000070401010306090D1013171A1E22262A4A
:103670002E32363A3E42464A4E53575B5F64696E7D
:10368000757C85909FB2A08D7D7067605A553E3CD9
:103690003A393736343332302F2E2C2A2927242238
:1036A0001F1C191613100D0A070402000305080A4F
:1036B0000D1013161A1D2125292D3135383C404394
:1036C000464A4D505356595B5E6165696F826D5431
:1036D0004D4A474442403E2E2E2D2C2C2B2A2A297F
:1036E00029282726252423211F1C1A1714100D0A08
:1036F00007040101030507090C0E1013161A1D21FA
:1037000024282C3033373A3D40424447484A4A4BFC
:103710004A48443D3019021621282B2D2E2F2E2EDB
:1037200006090C0F121517191B1C1B1811040E2269
:1037300031383C3C3C3A3835322F2B2824201C1998
:1037400015110D09050102060A0E1115181C1F227C
:103750002527292A2B2B2926211911080004080ABC
:103760000A0A0807040200030616181A1C1E202164
:103770001F1712516063625F5D5956524E4A4642AE
:103780003E3935312C2824201B17130E0A0601025E
:10379000060A0F13171B1F23262A2D313437393CF5
:1037A0003D3F3F3E3D39352F28211C17151313137C
:1037B0001416A8ADB2B0ABA6A19C97928D88837E5B
:1037C00079746F6A65605B56514C47423D38332EC1
:1037D00029241F1A15100B060103080D12171C21AE
:1037E000262B30353A3F44494E53585D62676C7121
:1037F000767B80858A8F94999EA3A800000001FFA4
:10380000FFE000000000000001FFFFF000000000EA
:10381000000001FFFFF800000000000001FFFFFEB4
:1038200000000000000003FFFFFF00000000000098
:1038300003FFFFFFF000000000000FFFFFFFFE008E
:10384000000003FFFFFC000007FC00007FFFFFFCFF
:10385000000000000000001FFFFE00000000002428
:103860001E191512100E0C0B0A0909090808080781
:10387000060605040404030404040000000000001C
:103880000000000027262123252325242722292A7A
:103890002A1C27282B33322725222C33313037009E
:1038A0000000000000000000008011401140713253
:1038B00073343332131211321112933413145352DE
:1038C000310021030406080B2D0A090705040241F3
:1038D000C011C05112535473121112515273147308
:1038E00032310021020405060708090806070624EC
:1038F00003020102000120012011C0011100313238
:10390000137413143312F112D31251000102232540
:10391000060746442342210001E0A0313213B433AC
:103920001112110011201100523312133211200113
:10393000222485042304020342410001E0A0511225
:103940001413151315341332514001201152133240
:1039500031000122230405040504230103826120B0
:1039600001E0118011321354151433323140210219
:10397000010031723141022344230201220122015C
:1039800002614001A0118051121413341514331236
:103990003140010201030201205211122021224371
:1039A000042241022102A10001E020114051537480
:1039B00013321140210203020302010011121132DD
:1039C00000114122232221004102A18001601160E7
:1039D00011001132337413121140016203020321EA
:1039E0003112111211400102010203020100010013
:1039F000E121E0A011201211733433312001620360
:103A00006240121112110011010001020122000195
:103A1000200100E1C00100118011001211131214E5
:103A20001334522001E20221203112110011000151
:103A300000210201000140210002410001E060116B
:103A40004011121113121413141332110021220306
:103A50004201022100010011001211001120010099
:103A600041600100C100014011200160114051126C
:103A700013121314331231000142032201022100F8
:103A800001401100310011000100010001A0E1001E
:103A900001A00180112031529312110021C2210096
:103AA0002140310011201100010001E0E16001E03E
:103AB0001100117273123100214203010201022030
:103AC000214011001120116001401160010001022C
:103AD0002102000120014001A05132131253321182
:103AE0002001020182210021000100110031E000CB
:103AF00011001160210001020102010100212001D9
:103B0000000160110011521312141352110041826E
:103B1000010200010021401100110011A01100312B
:103B20000011208122010100020100210001601129
:103B30000052131213141332310100020122014208
:103B4000010021000100011120110011201140711C
:103B500000114001022102010201002102210001A5
:103B6000000100110012111233123413321120011E
:103B700002014201220100410001601120110011E7
:103B800000110051123120610201220200020102E3
:103B9000812011001211733413321100410201828D
:103BA0000100610001801100110091323140214279
:103BB000010202006261401152141354333100417A
:103BC0008201220001020041000160911211525154
:103BD00020012201030102020082610051335415C9
:103BE000143331002102012203424102A1803192AB
:103BF0001332310041220302010300220322010299
:103C00000140111233953331010022010342032296
:103C100021220102610001110011521312531231CD
:103C20000041220322030023020302010221203269
:103C3000131416151716153311200162030203021F
:103C4000032201A241401112531413141332110123
:103C500000020102030203020200022302032221E6
:103C600020321416371817151312110021220302DF
:103C7000430243010302038221201112131415345D
:103C800015143211000162230203004302034201B2
:103C90002012131518193A171513110021020302E7
:103CA0006304E30203020302010240121314151716
:103CB0001516341220212243020300A32201001111
:103CC0001215181C1E1D1916131100020103020300
:103CD00004230403240304430423040302034220B3
:103CE000111214151718361513312102030223027D
:103CF000030100454E41424C4544000000000000D5
:103D0000000000001B000000000001015245515559
:103D1000495245440000000000000000001C000063
:103D20000000000102444542554700000000000029
:103D30000000000000001D000000000001035341CE
:103D4000464554494D450000000000000000001E9B
:103D5000000000000001044348414E4E454C000065
:103D6000000000000000000020000000000001052D
:103D70005245434D4F444500000000000000000044
:103D80000021000000000000FF0000000000000013
:103D90000000000000000000000000000000000023
:103DA0000100414C545F4F4E000000000000000035
:103DB0000000000200000000000101414C545F526D
:103DC000455100000000000000000000030000005A
:103DD00000000302414C545F4D494E0000000000BA
:103DE00000000000000B00000000000303414C54E1
:103DF0005F4D4158000000000000000000000F006F
:103E00000000000000FF00000000000000000000B3
:103E1000000000000000000000000000000100465B
:103E20004E435F4F4E000000000000000000000005
:103E30000200000000000101464E435F5245510060
:103E4000000000000000000000030000000000016E
:103E500002464E435F534D504C00000000000000EE
:103E600000000F00000000000203464E435F524175
:103E700044000000000000000000001000000000EE
:103E8000000104464E435F544F5400000000000000
:103E90000000000012000000000000FF0000000011
:103EA0000000000000000000000000000000000012
:103EB00000000001004750534C434B5F4F4E000041
:103EC0000000000000000200000000000101475057
:103ED000534C434B5F52455100000000000000036B
:103EE000000000000000FF000000000000000000D3
:103EF000000000000000000000000000000045522B
:103F0000524F5200416C746974756465204C696D40
:103F100069740047656F66656E6365204C696D69FD
:103F200074004750534C6F636B204C696D6974008B
:103F300000002100240027002A002D00300033005B
:103F400001010000040107010A0100002200250010
:103F500028002B002E003100340002010000050172
:103F600008010B01000020002300260029002C007E
:103F70002F003200000100000301060109010505C0
:103F80000505070508080808020202020A0A0808CF
:103F900004040404010101010101010103030303FD
:103FA00003030303040707070C0C0C0C0C0C0C0C8C
:103FB0000202020206060606060606060B0B0B0B9D
:103FC0000B0B0B0B010210202008081020401020C2
:103FD00040800201020108040201010204081020CD
:103FE00040808040201008040201800402018040CB
:103FF0002010080402010804020101020408102034
:10400000408001020408102040800000090A0208D4
:104010000B0C0D0706030401000000000000000067
:104020000000000000000000000000000000000090
:1040300000000000000011100F0000000000000050
:104040000000000000000000000000000000000070
:10405000494E46494E4954594E414ECDCCCC3D0A6D
:10406000D7233C17B7D13877CC2B329595E6241F50
:10407000B14F0A000020410000C84200401C462009
:10408000BCBE4CCA1B0E5AAEC59D74000D94795D22
:104090000D9483A40D9428A30D9466240D9455A823
:1040A0000D94C02D0D9417190D948B2A0D942D94F9
:1040B0000D9442A30D940D2D0D943C270D940A8F61
:1040C0000D94DF5D0D94484F0D94647F0D94527EE6
:1040D0000D94847E0D9452580D94812C0D94D0042F
:1040E0000D94B9020D9456040D947E5A0D9474B932
:1040F0000D947C5F0D9482920D94327F0D94685ADA
:104100000D942C130D94964D0D94A8930D94715D00
:104110000D940D250D94DEB50D9467B90D948B3279
:104120000D9462B90D94D0900D9448820D94705FF7
:104130000D94937E0D942E5E0D949F820D94FC320F
:104140000D94A1AB0D94F25E0D9420950D94885FB3
:104150000D94FF230D94B02B0D94F3110D94FABB25
:104160000D94A02A0D9486030D944B970D94982AD4
:104170000D94D3940D941DA40D9475140D94EC48D6
:104180000D940EB90D944CA30D9428120D94C6A451
:104190000D9443970D94468C0D94112D0D94A71BEF
:1041A0000D9470B90D9434030D94E7BE0D945E4CDC
:1041B0000D94FB050D9473550D9446820D94520495
:1041C0000D9453250D94287F0D948F7E0D94992482
:1041D0000D94F5070D94321E0D94705C0D947A7E4B
:1041E0000D94D4240D94735A0D945B970D94F2AAF8
:1041F0000D94D7320D9495040D94A82A0D94D132C4
:104200000D94812A0D9470240D949BA60D94401E4C
:104210000D94654D0D94BA160D94F5820D945504C8
:104220000D94EB810D9493A40D942D5E0D944797FE
:104230000D948AA60D9426A30D94178F0D94888053
:104240000D94BC250D94358F0D9424480D947D7EDE
:104250000D94D7020D9486670D94D3320D9477A7F1
:104260000D94378E0D94B00A0D94368F0D94A15C89
:104270000D94A28C0D9479B90D946CB90D94545091
:104280000D94887E0D945E5A0D9422040D946AAEAE
:104290000D94388F0D9461580D94545A0D948B7F62
:1042A0000D94747E0D94FC8E0D946D5D0D941B8F9A
:1042B0000D94927E0D9443580D94ED230D945DA4BE
:1042C0000D94F5A30D9409300D94D4030D94398FFA
:1042D0000D948B760D945C1E0D9479480D943F19C6
:1042E0000D9459040D94777E0D94948C0D94C68E84
:1042F0000D946D5A0D946FA70D94685D0D94A80DE3
:104300000D94BE8E0D9460380D9457040D9445970E
:104310000D946C7E0D94495D0D9458040D94807E2F
:104320000D945EB90D9494250D94B0A30D94CD5FBA
:104330000D9430910D9423930D9470A40D944D37EA
:104340000D94BEAB0D9468380D9416050D94917EB6
:104350000D94F70A0D9497140D94737E0D94329575
:104360000D9454520D94D3350D94ECA70D947BA36A
:104370000D94897E0D9438A30D942A240D94E206A1
:104380000D941F260D9407800D94622F0D940CB888
:104390000D9454820D94707E0D94745D0D94BB5CED
:1043A0000D940E060F98CE207420099811241FBE7C
:1043B000CFEFD1E2DEBFCDBF00E00CBF16E0A0E042
:1043C000B2E0E6E3FDE803E00BBF02C007900D9208
:1043D000A038B107D9F71BBE17E1A0E8B6E001C0CD
:1043E0001D92A33FB107E1F713E4CAEAD3E404C086
:1043F0002297FE010F9478C6C43AD107C9F70F94EB
:10440000D9BE0D948FC60C940000283008F027E028
:104410003327DA01990F311D87FD91600096610500
:10442000710539F432602E5F3D9330E32A95E1F750
:1044300008959F3F30F080387105610509F03C5FB9
:104440003C5F3D93913008F08068911DDF93CF93DE
:104450001F930F93FF92EF92192F987F9695E92F54
:1044600096959695E90FFF27E557F94D992733273C
:10447000EE24FF24A701E70105900894079428F48F
:10448000360FE71EF81E491F511D660F771F881F44
:10449000991F0694A1F70590079428F4E70EF81EDB
:1044A000491F561FC11D770F881F991F661F06944D
:1044B000A1F70590079428F4F80E491F561FC71F4F
:1044C000D11D880F991F661F771F0694A1F70590CD
:1044D000079420F4490F561FC71FD81F990F661F56
:1044E000771F881F0694A9F784911095177041F0E3
:1044F000D695C79557954795F794E7941A95C1F7C0
:10450000E1E3F6E2689415901591359165919591E6
:1045100005907FE27395E118F10A430B560BC90B26
:10452000D009C0F7E10CF11E431F561FC91FD01D53
:104530007EF4703311F48A95E6CFE894015030F0A0
:10454000080F0AF40027021708F4202F2395022FE2
:104550007A3328F079E37D932A95E9F710C07D93AB
:104560002A9589F606949795679537951795179428
:10457000E118F10A430B560BC90BD00998F02395AB
:104580007E9173957A3308F070E37C932013B8F72B
:104590007E9170617D9330F0839571E37D9370E33C
:1045A0002A95E1F71124EF90FF900F911F91CF9181
:1045B000DF91992787FD90950895FA01AA27283061
:1045C00051F1203181F1E8946F936E7F6E5F7F4FE0
:1045D0008F4F9F4FAF4FB1E03ED0B4E03CD0670F5C
:1045E000781F891F9A1FA11D680F791F8A1F911DAF
:1045F000A11D6A0F711D811D911DA11D20D009F4FF
:1046000068943F912AE0269F11243019305D319340
:10461000DEF6CF010895462F4770405D4193B3E029
:104620000FD0C9F7F6CF462F4F70405D4A3318F0D0
:10463000495D31FD4052419302D0A9F7EACFB4E081
:10464000A6959795879577956795BA95C9F7009739
:104650006105710508959B01AC010A2E06945795DA
:10466000479537952795BA95C9F7620F731F841F31
:10467000951FA01D0895A0E3B0E0E1E4F3E20D94DE
:104680003FC6A8E04E010894811C911CF401BA2F8A
:104690001192BA95E9F729833A834B835C836D8342
:1046A0007E838F839887CE010996FC011192AA958B
:1046B000E9F7A986BA86CB86DC86ED86FE860F876B
:1046C000188B29813A814B815C812DA73EA74FA78A
:1046D00058AB79018A018FEF9FEFA0E0B0E0E822AC
:1046E000F9220A231B231A014424552429853A85DB
:1046F0004B855C8529A73AA74BA75CA759016A019E
:10470000A822B922CA22DB223A0188249924C601B0
:10471000B501A80197010F94B0C56DA37EA38FA327
:1047200098A7C401B3010F94B0C569A37AA38BA362
:104730009CA3C601B501A20191010F94B0C57B01F4
:104740008C01C401B3010F94B0C55B016C0189A158
:104750009AA1ABA1BCA18E0D9F1DA01FB11F89A363
:104760009AA3ABA3BCA32DA13EA14FA158A5CA01FA
:10477000AA27BB2729A13AA14BA15CA1280F391F69
:104780004A1F5B1F29A33AA34BA35CA32E153F0529
:104790004007510740F480E090E0A1E0B0E0A80EAF
:1047A000B91ECA1EDB1E89A19AA1ABA1BCA19D01A5
:1047B000442755272A0D3B1D4C1D5D1D2D8F3E8F17
:1047C0004F8F58A36C01BB24AA248DA19EA1AFA139
:1047D000B8A5A070B070A80EB91ECA1EDB1EA98EA7
:1047E000BA8ECB8EDC8E9A8C8B8C7C8C9E8D6F8D52
:1047F00078A1FE01719688E0DF011D928A95E9F7A4
:104800002D8B9E8B6F8B788F2D853E854F8558899C
:104810006DA57EA58FA598A90F94B0C57B018C01CD
:104820002D813E814F81588569A57AA58BA59CA5D0
:104830000F94B0C5E60EF71E081F191F6D897E89FB
:104840008F89988D6E0D7F1D801F911F6D8B7E8BC4
:104850008F8B988FEE892A2D392D482D572D7E2F3D
:104860008F89988DE096E2E10D945BC6EF92FF92FE
:104870000F93DF93CF93CDB7DEB760970FB6F89461
:10488000DEBF0FBECDBFA82F002309F461C07E019B
:104890000894E11CF11C88E0F70111928A95E9F770
:1048A00029833A834B835C836D837E83AF839887B0
:1048B00080E2801BE82FFF27E7FDF09549815A81B0
:1048C0006B817C81181684F019861A861B861C86DB
:1048D000882799278E1B9F0B04C0440F551F661F06
:1048E000771F8A95D2F728C0202F332727FD3095D0
:1048F000DB01CA01022E04C0880F991FAA1FBB1F2B
:104900000A94D2F789879A87AB87BC8704C07695CB
:10491000679557954795EA95D2F78D819E81AF812E
:10492000B88504C0880F991FAA1FBB1F2A95D2F70C
:10493000482B592B6A2B7B2B4D875E876F87788B93
:1049400029853A854B855C856D857E85AF859889FF
:104950008A2F60960FB6F894DEBF0FBECDBFCF9101
:10496000DF910F91FF90EF9008950F931F93CF93D6
:10497000DF93689F8001699F100D789F100D1124AF
:10498000C8010F94A4BDEC01009721F060E070E035
:10499000A801A2D0CE01DF91CF911F910F91089570
:1049A000662777270BC3FC0188279927E894219174
:1049B0002032E9F3293010F02E30C8F32B3239F0D1
:1049C0002D3231F4689403C0F8D0820F911D2191EB
:1049D00020532A30C8F31EF4909581959F4F089577
:1049E0001F93FC0199278827BC01E894119110328C
:1049F000E9F3193010F01E30C8F31B3249F01D32B4
:104A000041F4689405C0C4D0610F711D811D911DD2
:104A1000119110531A30B8F33EF49095809570952B
:104A200061957F4F8F4F9F4F1F910895FB01DC01D0
:104A300002C005900D9241505040D8F70895FB01F7
:104A4000DC018D9181341CF08B350CF4805E659116
:104A500061341CF06B350CF4605E861B611189F3C8
:104A6000990B0895FB01DC018D91059080190110CF
:104A7000D9F3990B0895FB01DC014150504030F00F
:104A80008D910590801919F40020B9F7881B990BB6
:104A90000895FB01DC014150504048F005900D9213
:104AA0000020C9F701C01D9241505040E0F7089521
:104AB000FC010590615070400110D8F780959095E9
:104AC0008E0F9F1F0895FB01DC0102C001900D9223
:104AD00041505040D8F70895DC0101C06D9341501A
:104AE0005040E0F70895FB01DC018D9101908019A1
:104AF0000110D9F3990B0895FB01DC01415050409E
:104B000048F001900D920020C9F701C01D9241505C
:104B10005040E0F70895FC01615070400190011091
:104B2000D8F7809590958E0F9F1F0895009731F4C8
:104B3000DA018D919C91009709F40EC0DC01FB0114
:104B40003D912191222319F03217C9F3FACF332373
:104B500031F4DA011D921C92882799270895119744
:104B6000AF93BF93FB013D912191321771F4332331
:104B700021F488279927119702C01E921196FA01F5
:104B8000A193B0839F918F910895222369F7EACF73
:104B9000592F482F372F262F660F771F881F991FF1
:104BA000660F771F881F991F620F731F841F951F41
:104BB000660F771F881F991F08957AE0979F902DA1
:104BC000879F802D910D11240895AEE0B0E0EBEEAB
:104BD000F5E20D944DC68C0177FF02C060E070E8ED
:104BE000615070407E836D831A83098386E08C83D5
:104BF000CE010196BA01A90111D02D813E8137FD68
:104C000009C0EF81F8852E173F070CF4F901E00F7A
:104C1000F11F10822E96E4E00D9469C6ABE0B0E07F
:104C2000E4E1F6E20D943FC63C012B015A01FC0180
:104C300017821682838181FD03C06FEF7FEFB9C1B8
:104C40009AE0892E1E010894211C311CF301238156
:104C5000F20123FD859123FF81912F01882309F41F
:104C6000A5C1853239F423FD859123FF81912F0160
:104C7000853221F490E0B30116D3E8CF982FFF24BA
:104C8000EE249924FFE1FF15D0F09B3269F09C32AD
:104C900028F4903259F0933291F40EC09D3249F0CD
:104CA000903369F441E024C052E0F52A84E0F82A08
:104CB00028C098E0F92A25C0E0E1FE2A22C0F7FCCE
:104CC00029C0892F80538A3070F4F6FE05C0989C65
:104CD000902C1124980E15C0E89CE02C1124E80EAD
:104CE000F0E2FF2A0EC09E3229F4F6FC5FC140E4D8
:104CF000F42A07C09C3619F450E8F52A02C0983609
:104D000049F4F20123FD959123FF91912F019923FD
:104D100009F0B8CF892F8554833018F08052833042
:104D200038F444E050E0A40EB51E5FE359830FC091
:104D3000933631F0933779F0933509F052C01FC0A4
:104D4000F5018081898342E050E0A40EB51E610127
:104D500001E010E011C0F501C080D180F6FC03C075
:104D60006FEF7FEF02C0692D70E042E050E0A40ECB
:104D7000B51EC601D0DE8C015FE7F52213C0F50138
:104D8000C080D180F6FC03C06FEF7FEF02C0692DB9
:104D900070E042E050E0A40EB51EC60189DE8C0131
:104DA00050E8F52AF3FE06C018C080E290E0B30197
:104DB0007AD2EA948E2D90E008171907B0F30DC04F
:104DC000F601F7FC8591F7FE81916F0190E0B30148
:104DD0006AD2E110EA94015010400115110581F7E3
:104DE000E2C0943611F0993661F5F7FE08C0F5017E
:104DF000208131814281538184E090E00AC0F50135
:104E0000808191819C01442737FD4095542F82E099
:104E100090E0A80EB91E9FE6F92257FF09C05095F1
:104E20004095309521953F4F4F4F5F4FE0E8FE2A68
:104E3000CA01B901A1012AE030E0BFDBD82ED218A7
:104E40003FC0953729F41F2D1F7E2AE030E01DC09A
:104E50001F2D197F9F3661F0903720F4983509F0A7
:104E6000A5C00FC0903739F0983709F09FC004C033
:104E700028E030E00AC0106114FD146020E130E049
:104E800004C014FD166020E132E017FF08C0F501F0
:104E9000608171818281938144E050E008C0F50116
:104EA00080819181BC0180E090E042E050E0A40E5E
:104EB000B51EA10182DBD82ED2188FE7F82EF12281
:104EC000F6FE0BC05EEFF522D91438F4F4FE07C0ED
:104ED000F2FC05C08FEEF82202C01D2D01C0192D75
:104EE000F4FE0DC0FE01ED0DF11D8081803319F43B
:104EF00099EEF92208C01F5FF2FE05C003C08F2D96
:104F0000867809F01F5F0F2DF3FC13C0F0FE0EC072
:104F10001E1510F09D2C0AC09D2C9E0C911A1E2D62
:104F200005C080E290E0B301BED11F5F1E15C8F33B
:104F300004C01E1510F4E11A01C0EE2404FF0EC0D7
:104F400080E390E0B301AFD102FF1BC001FD03C0BD
:104F500088E790E00EC088E590E00BC0802F86784F
:104F600081F001FF02C08BE201C080E2F7FC8DE21C
:104F700090E0B30198D105C080E390E0B30193D1F4
:104F80009A94D914C8F3DA94F101ED0DF11D8081E2
:104F900090E0B30188D1DD20B1F705C080E290E058
:104FA000B30181D1EA94EE20C9F750CEF3016681B6
:104FB0007781CB012B96E2E10D945BC6A0E0B0E0D7
:104FC000E4EEF7E20D9445C6EC015B016115710555
:104FD00019F0FB0191838083F9908F2D90E00F945D
:104FE00084C6892BC9F7FDE2FF1621F4F990EE245F
:104FF000E39405C02BE2F21609F4F990EE248E0139
:1050000001501040C80160E570E443E050E033D146
:10501000892BF9F48E010E5F1F4FC80163E570E420
:1050200045E050E028D1892B19F48E01095F1F4F0C
:10503000A114B10419F0F50111830083E0FC04C050
:1050400070E090E080E813C070E090E080E86FEFDF
:1050500007C1C80168E570E443E050E00CD1892B3A
:1050600069F4A114B10429F470E090E080EC6FE7DA
:10507000F7C02296F501D183C083F6CF8824992406
:1050800040E050E060E070E0EF2DE053EA30A0F542
:10509000F2E0EF2A8E2D90E09C0128703070E2FE45
:1050A00006C0232B79F50894811C911C2BC0232B5F
:1050B00019F0089481089108DB01CA0112E0880FF9
:1050C000991FAA1FBB1F1A95D1F7480F591F6A1FB6
:1050D0007B1F440F551F661F771F4E0F511D611D0B
:1050E000711D483929E9520729E9620729E1720748
:1050F00048F084E0E82A06C0EE3F31F4E3FC39C012
:1051000098E0E92AF990C0CFE53311F0E53189F54F
:1051100029912D3219F4E0E1EE2A05C02B3219F065
:1051200081E090E003C0299182E090E0E22FE0531B
:10513000EA3018F0C81BD90B1CC020E030E0FCE0BE
:1051400020383F075CF4C901880F991F880F991F09
:10515000280F391F220F331F2E0F311DE991E05305
:10516000EA3068F3E4FE03C0309521953F4F820E8C
:10517000931ECE2CDD24E1FE07C0A114B10421F062
:105180002197F501D183C083CB01BA010F94E1C20D
:105190007B018C01F3E0CF22DD2423E0C216D10491
:1051A00021F417FB109517F9109557016801C801F4
:1051B000B70120E030E040E050E00F9441C2882386
:1051C00009F44AC097FE0DC02FE6E22E20E4F22E2D
:1051D0009094819491089394C0E2D0E000E010E0B4
:1051E00012C097E8E92E90E4F92EF6CFF701259149
:1051F000359145915491C601B5010F94CBC45B0123
:105200006C018C1A9D0A8C169D0684F7D595C7955E
:105210000F5F1F4F0630110529F08CEF9FEFE80E4E
:10522000F91EF1CFC501D6017C018D018C2D880FAF
:105230008D2D881F8F3F51F0C601B50120E030E071
:1052400040E050E00F9441C2882331F482E290E0C4
:105250009093F2178093F1177E2D9F2D802F612F51
:10526000272F392F482F562FB901CA01CDB7DEB7E6
:10527000ECE00D9461C6FB01DC014150504088F028
:105280008D9181341CF08B350CF4805E6591613416
:105290001CF06B350CF4605E861B611171F3990B89
:1052A0000895881BFCCF0F931F93CF93DF938C013E
:1052B000EB018B8181FF1BC082FF0DC02E813F81DE
:1052C0008C819D812817390764F4E881F981019365
:1052D000F983E88306C0E885F985802F1995892B25
:1052E00031F48E819F8101969F838E8302C00FEFE0
:1052F0001FEFC801DF91CF911F910F9108959C017D
:10530000F999FECF32BD21BDF89A60B5F999FECF6B
:105310002F5F3F4F32BD21BD21503040F89A70B50C
:10532000F999FECF2E5F3F4F32BD21BD2250304054
:10533000F89A80B5F999FECF2D5F3F4F32BD21BD60
:10534000F89A90B508959C01F999FECF1FBA32BD25
:1053500021BD40BD0FB6F894FA9AF99A0FBEF9999B
:10536000FECF1FBA2F5F3F4F32BD21BD21503040CD
:1053700050BD0FB6F894FA9AF99A0FBEF999FECF7C
:105380001FBA2E5F3F4F32BD21BD2250304060BD5D
:105390000FB6F894FA9AF99A0FBEF999FECF1FBA90
:1053A0002D5F3F4F32BD21BD70BD0FB6F894FA9A04
:1053B000F99A0FBE0895DC01D2968C91D29788237A
:1053C00061F0D3968C91D397882339F0ED91FC91BD
:1053D000119704A0F5A1E02D06C0ED91FC91119765
:1053E00006A0F7A1E02DCD01199508951F920F9207
:1053F0000FB60F920BB60F9211242F938F939F939A
:10540000EF93FF932091C600909147159F5F809185
:105410004915982380914815981759F080914715A0
:10542000E0914A15F0914B15E80FF11D2083909300
:105430004715FF91EF919F918F912F910F900BBE88
:105440000F900FBE0F901F9018951F920F920FB6DE
:105450000F920BB60F9211248F939F93EF93FF93AC
:1054600090915C1580915B159817A1F080915C1567
:10547000E0915E15F0915F15E80FF11D808180933A
:10548000C60080915C158F5F90915D158923809394
:105490005C150BC090915B1580915C15981729F4F1
:1054A0008091C1008F7D8093C100FF91EF919F910A
:1054B0008F910F900BBE0F900FBE0F901F901895FD
:1054C0001F920F920FB60F920BB60F9211242F93CB
:1054D0008F939F93EF93FF932091CE0090914C1563
:1054E0009F5F80914E15982380914D15981759F024
:1054F00080914C15E0914F15F0915015E80FF11D7A
:10550000208390934C15FF91EF919F918F912F9154
:105510000F900BBE0F900FBE0F901F9018951F920B
:105520000F920FB60F920BB60F9211248F939F9389
:10553000EF93FF9390916115809160159817A1F0FA
:1055400080916115E0916315F0916415E80FF11DEC
:1055500080818093CE00809161158F5F909162155C
:105560008923809361150BC090916015809161151E
:10557000981729F48091C9008F7D8093C900FF910D
:10558000EF919F918F910F900BBE0F900FBE0F90D8
:105590001F9018951F920F920FB60F920BB60F9295
:1055A00011242F938F939F93EF93FF932091D60015
:1055B000909151159F5F80915315982380915215BA
:1055C000981759F080915115E0915415F0915515A7
:1055D000E80FF11D208390935115FF91EF919F915A
:1055E0008F912F910F900BBE0F900FBE0F901F90B9
:1055F00018951F920F920FB60F920BB60F921124AF
:105600008F939F93EF93FF9390916615809165150B
:105610009817A1F080916615E0916815F0916915D1
:10562000E80FF11D80818093D600809166158F5F11
:10563000909167158923809366150BC0909165152D
:1056400080916615981729F48091D1008F7D809301
:10565000D100FF91EF919F918F910F900BBE0F9012
:105660000FBE0F901F9018951F920F920FB60F92BA
:105670000BB60F9211242F938F939F93EF93FF9369
:1056800020913601909156159F5F8091581598236F
:1056900080915715981759F080915615E09159153A
:1056A000F0915A15E80FF11D208390935615FF9144
:1056B000EF919F918F912F910F900BBE0F900FBE86
:1056C0000F901F9018951F920F920FB60F920BB666
:1056D0000F9211248F939F93EF93FF9390916B15EB
:1056E00080916A159817A1F080916B15E0916D1566
:1056F000F0916E15E80FF11D808180933601809145
:105700006B158F5F90916C15892380936B150BC07F
:1057100090916A1580916B15981729F48091310149
:105720008F7D80933101FF91EF919F918F910F9029
:105730000BBE0F900FBE0F901F9018952F923F92A7
:105740004F925F926F927F928F929F92AF92BF9291
:10575000CF92DF92EF92FF920F931F93DF93CF933D
:10576000CDB7DEB728970FB6F894DEBF0FBECDBF1A
:105770008091B514882309F0AAC06091BE1470917D
:10578000BF148091C0149091C1140F94E3C25B01C7
:105790006C016091B6147091B7148091B814909117
:1057A000B9140F94E3C27B018C01C601B5012091AD
:1057B000BA143091BB144091BC145091BD140F9495
:1057C000CBC49B01AC01C801B7010F9463C10F9416
:1057D000B0C26093A1147093A2148093A314909309
:1057E000A4142090520330905303409054035090DF
:1057F00055036091C2147091C3148091C4149091A8
:10580000C5140F94E3C26D837E838F839887809144
:10581000C6149091C714A091C814B091C91489837B
:105820009A83AB83BC8360904E0370904F0380904B
:10583000500390905103C201B1012D813E814F81EF
:1058400058850F94CBC47B018C0169817A818B814F
:105850009C81A40193010F94CBC4A60195010F94E0
:10586000CBC49B01AC01C801B7010F9464C10F9474
:10587000B0C26093A5147093A6148093A71490935C
:10588000A814C401B301A20191010F94CBC4A601D5
:1058900095010F94CBC47B018C0169817A818B8146
:1058A0009C812D813E814F8158850F94CBC49B01F3
:1058B000AC01C801B7010F9463C10F94B0C26093EB
:1058C000A9147093AA148093AB149093AC142896E7
:1058D0000FB6F894DEBF0FBECDBFCF91DF911F9101
:1058E0000F91FF90EF90DF90CF90BF90AF909F907F
:1058F0008F907F906F905F904F903F902F90089582
:10590000EF92FF920F931F93CF93DF93EC0160917F
:10591000CA147091CB148091CC149091CD1420E0D6
:1059200030E040E050E00F9441C2882391F4609150
:10593000270F7091280F882777FD8095982F0F9457
:10594000E3C26093CA147093CB148093CC149093E9
:10595000CD148091200F9091210F8C179D070CF092
:105960005DC08091EF139091F013CB96873791052E
:1059700008F054C08091860990918709A091880908
:10598000B09189098D509E4FAF4FBF4F875E9340B6
:10599000A040B04008F042C080918A0990918B09E4
:1059A000A0918C09B0918D098D509E4FAF4FBF4F84
:1059B000875E9340A040B04088F56091CA14709112
:1059C000CB148091CC149091CD1424EA30E74DE7AC
:1059D0005FE30F94CBC47B018C01BE01882777FD68
:1059E0008095982F0F94E3C22AE037ED43E25CE301
:1059F0000F94CBC49B01AC01C801B7010F9464C1E3
:105A00006093CA147093CB148093CC149093CD14EC
:105A10000F94B0C27093280F6093270FDF91CF913E
:105A20001F910F91FF90EF900895EF92FF920F93C7
:105A30001F93CF93DF93EC01662309F46AC0609152
:105A40004E0370914F038091500390915103209128
:105A500052033091530340915403509155030F94D6
:105A6000CBC47B018C0120E030E040E05FE30F9489
:105A700041C288235CF40F2EF0E0EF2EF0E0FF2E01
:105A8000F0E00F2FFFE31F2FF02D1FC0C801B7015B
:105A900020E030E040E85FE30F947BC418165CF42C
:105AA0000F2EF0E0EF2EF0E0FF2EF0E00F2FF0E0F1
:105AB0001F2FF02D0AC060E070E080E89FE3A8018E
:105AC00097010F9463C17B018C018091440C9091EC
:105AD000450C9E01281B390B37FF02C020E030E047
